{
  "contractName": "CryptoBeauty",
  "abi": [
    {
      "constant": true,
      "inputs": [
        {
          "name": "",
          "type": "uint256"
        }
      ],
      "name": "modelIdToNcardCount",
      "outputs": [
        {
          "name": "",
          "type": "uint256"
        }
      ],
      "payable": false,
      "stateMutability": "view",
      "type": "function"
    },
    {
      "constant": true,
      "inputs": [
        {
          "name": "",
          "type": "uint256"
        },
        {
          "name": "",
          "type": "uint256"
        }
      ],
      "name": "Ncards",
      "outputs": [
        {
          "name": "id",
          "type": "uint256"
        },
        {
          "name": "birthTime",
          "type": "uint256"
        },
        {
          "name": "modelId",
          "type": "uint256"
        }
      ],
      "payable": false,
      "stateMutability": "view",
      "type": "function"
    },
    {
      "constant": true,
      "inputs": [
        {
          "name": "",
          "type": "address"
        }
      ],
      "name": "hasPlayed",
      "outputs": [
        {
          "name": "",
          "type": "bool"
        }
      ],
      "payable": false,
      "stateMutability": "view",
      "type": "function"
    },
    {
      "constant": true,
      "inputs": [
        {
          "name": "",
          "type": "uint256"
        }
      ],
      "name": "modelIdToSSRcardCount",
      "outputs": [
        {
          "name": "",
          "type": "uint256"
        }
      ],
      "payable": false,
      "stateMutability": "view",
      "type": "function"
    },
    {
      "constant": true,
      "inputs": [],
      "name": "totalModelCount",
      "outputs": [
        {
          "name": "",
          "type": "uint256"
        }
      ],
      "payable": false,
      "stateMutability": "view",
      "type": "function"
    },
    {
      "constant": true,
      "inputs": [
        {
          "name": "",
          "type": "uint256"
        }
      ],
      "name": "modelIdToURcardCount",
      "outputs": [
        {
          "name": "",
          "type": "uint256"
        }
      ],
      "payable": false,
      "stateMutability": "view",
      "type": "function"
    },
    {
      "constant": true,
      "inputs": [],
      "name": "totalCardCount",
      "outputs": [
        {
          "name": "",
          "type": "uint256"
        }
      ],
      "payable": false,
      "stateMutability": "view",
      "type": "function"
    },
    {
      "constant": true,
      "inputs": [
        {
          "name": "",
          "type": "uint256"
        }
      ],
      "name": "modelIdToRcardCount",
      "outputs": [
        {
          "name": "",
          "type": "uint256"
        }
      ],
      "payable": false,
      "stateMutability": "view",
      "type": "function"
    },
    {
      "constant": true,
      "inputs": [],
      "name": "drawCardCost",
      "outputs": [
        {
          "name": "",
          "type": "uint256"
        }
      ],
      "payable": false,
      "stateMutability": "view",
      "type": "function"
    },
    {
      "constant": true,
      "inputs": [
        {
          "name": "",
          "type": "address"
        }
      ],
      "name": "playerRareScore",
      "outputs": [
        {
          "name": "",
          "type": "uint256"
        }
      ],
      "payable": false,
      "stateMutability": "view",
      "type": "function"
    },
    {
      "constant": true,
      "inputs": [
        {
          "name": "",
          "type": "uint256"
        },
        {
          "name": "",
          "type": "uint256"
        }
      ],
      "name": "SRcards",
      "outputs": [
        {
          "name": "id",
          "type": "uint256"
        },
        {
          "name": "birthTime",
          "type": "uint256"
        },
        {
          "name": "modelId",
          "type": "uint256"
        }
      ],
      "payable": false,
      "stateMutability": "view",
      "type": "function"
    },
    {
      "constant": true,
      "inputs": [],
      "name": "owner",
      "outputs": [
        {
          "name": "",
          "type": "address"
        }
      ],
      "payable": false,
      "stateMutability": "view",
      "type": "function"
    },
    {
      "constant": true,
      "inputs": [
        {
          "name": "",
          "type": "address"
        }
      ],
      "name": "holdCardCount",
      "outputs": [
        {
          "name": "",
          "type": "uint256"
        }
      ],
      "payable": false,
      "stateMutability": "view",
      "type": "function"
    },
    {
      "constant": true,
      "inputs": [
        {
          "name": "",
          "type": "uint256"
        }
      ],
      "name": "cardIndexToRareScore",
      "outputs": [
        {
          "name": "",
          "type": "uint256"
        }
      ],
      "payable": false,
      "stateMutability": "view",
      "type": "function"
    },
    {
      "constant": true,
      "inputs": [
        {
          "name": "",
          "type": "uint256"
        },
        {
          "name": "",
          "type": "uint256"
        }
      ],
      "name": "Rcards",
      "outputs": [
        {
          "name": "id",
          "type": "uint256"
        },
        {
          "name": "birthTime",
          "type": "uint256"
        },
        {
          "name": "modelId",
          "type": "uint256"
        }
      ],
      "payable": false,
      "stateMutability": "view",
      "type": "function"
    },
    {
      "constant": true,
      "inputs": [],
      "name": "totalRareScore",
      "outputs": [
        {
          "name": "",
          "type": "uint256"
        }
      ],
      "payable": false,
      "stateMutability": "view",
      "type": "function"
    },
    {
      "constant": true,
      "inputs": [
        {
          "name": "",
          "type": "uint256"
        }
      ],
      "name": "modelIdToSRcardCount",
      "outputs": [
        {
          "name": "",
          "type": "uint256"
        }
      ],
      "payable": false,
      "stateMutability": "view",
      "type": "function"
    },
    {
      "constant": true,
      "inputs": [
        {
          "name": "",
          "type": "uint256"
        },
        {
          "name": "",
          "type": "uint256"
        }
      ],
      "name": "URcards",
      "outputs": [
        {
          "name": "id",
          "type": "uint256"
        },
        {
          "name": "birthTime",
          "type": "uint256"
        },
        {
          "name": "modelId",
          "type": "uint256"
        }
      ],
      "payable": false,
      "stateMutability": "view",
      "type": "function"
    },
    {
      "constant": true,
      "inputs": [
        {
          "name": "",
          "type": "uint256"
        },
        {
          "name": "",
          "type": "uint256"
        }
      ],
      "name": "SSRcards",
      "outputs": [
        {
          "name": "id",
          "type": "uint256"
        },
        {
          "name": "birthTime",
          "type": "uint256"
        },
        {
          "name": "modelId",
          "type": "uint256"
        }
      ],
      "payable": false,
      "stateMutability": "view",
      "type": "function"
    },
    {
      "constant": true,
      "inputs": [
        {
          "name": "",
          "type": "uint256"
        }
      ],
      "name": "cardIndexToHolder",
      "outputs": [
        {
          "name": "",
          "type": "address"
        }
      ],
      "payable": false,
      "stateMutability": "view",
      "type": "function"
    },
    {
      "constant": true,
      "inputs": [
        {
          "name": "",
          "type": "uint256"
        }
      ],
      "name": "modelCardHasCreated",
      "outputs": [
        {
          "name": "",
          "type": "bool"
        }
      ],
      "payable": false,
      "stateMutability": "view",
      "type": "function"
    },
    {
      "constant": true,
      "inputs": [
        {
          "name": "",
          "type": "address"
        }
      ],
      "name": "playerDeposit",
      "outputs": [
        {
          "name": "",
          "type": "uint256"
        }
      ],
      "payable": false,
      "stateMutability": "view",
      "type": "function"
    },
    {
      "inputs": [],
      "payable": false,
      "stateMutability": "nonpayable",
      "type": "constructor"
    },
    {
      "constant": false,
      "inputs": [
        {
          "name": "_rareScore",
          "type": "uint256"
        },
        {
          "name": "_modelId",
          "type": "uint256"
        },
        {
          "name": "_holder",
          "type": "address"
        }
      ],
      "name": "createNewCard",
      "outputs": [
        {
          "name": "",
          "type": "uint256"
        }
      ],
      "payable": false,
      "stateMutability": "nonpayable",
      "type": "function"
    },
    {
      "constant": false,
      "inputs": [
        {
          "name": "_to",
          "type": "address"
        },
        {
          "name": "_modelId",
          "type": "uint256"
        }
      ],
      "name": "drawCard",
      "outputs": [
        {
          "name": "rareScore",
          "type": "uint256"
        }
      ],
      "payable": false,
      "stateMutability": "nonpayable",
      "type": "function"
    },
    {
      "constant": false,
      "inputs": [],
      "name": "deposit",
      "outputs": [],
      "payable": true,
      "stateMutability": "payable",
      "type": "function"
    },
    {
      "constant": false,
      "inputs": [
        {
          "name": "amount",
          "type": "uint256"
        }
      ],
      "name": "withdrawDeposit",
      "outputs": [],
      "payable": false,
      "stateMutability": "nonpayable",
      "type": "function"
    },
    {
      "constant": false,
      "inputs": [
        {
          "name": "_addr",
          "type": "address"
        }
      ],
      "name": "setRandContractAddr",
      "outputs": [],
      "payable": false,
      "stateMutability": "nonpayable",
      "type": "function"
    }
  ],
  "bytecode": "0x60806040526001805534801561001457600080fd5b50336000806101000a81548173ffffffffffffffffffffffffffffffffffffffff021916908373ffffffffffffffffffffffffffffffffffffffff160217905550611afe806100646000396000f3fe60806040526004361061015f576000357c0100000000000000000000000000000000000000000000000000000000900463ffffffff1680631ef13e7e146101645780632f35637d146101b357806332d0bbe31461021a57806333289a46146102835780633c502b42146102be578063457942f11461030d5780634660013b14610338578063472175ae146103875780635671ec301461040057806362138f5f1461042b5780636e11ec2b1461047a5780636eaa00ba146104e957806372d7cff41461051457806384e739341461056557806388ce6735146105ca5780638da5cb5b1461063157806391354e28146106885780639ccbbace146106ed578063a8bc6f9c1461073c578063b4e4b597146107a3578063d0e30db0146107ce578063d932cb31146107d8578063d9bbffe514610827578063e0aabd381461088e578063e3309ae4146108f5578063e41fdcc114610970578063e91ead6a146109c3575b600080fd5b34801561017057600080fd5b5061019d6004803603602081101561018757600080fd5b8101908080359060200190929190505050610a28565b6040518082815260200191505060405180910390f35b3480156101bf57600080fd5b506101f6600480360360408110156101d657600080fd5b810190808035906020019092919080359060200190929190505050610a40565b60405180848152602001838152602001828152602001935050505060405180910390f35b34801561022657600080fd5b506102696004803603602081101561023d57600080fd5b81019080803573ffffffffffffffffffffffffffffffffffffffff169060200190929190505050610a86565b604051808215151515815260200191505060405180910390f35b34801561028f57600080fd5b506102bc600480360360208110156102a657600080fd5b8101908080359060200190929190505050610aa6565b005b3480156102ca57600080fd5b506102f7600480360360208110156102e157600080fd5b8101908080359060200190929190505050610b43565b6040518082815260200191505060405180910390f35b34801561031957600080fd5b50610322610b5b565b6040518082815260200191505060405180910390f35b34801561034457600080fd5b506103716004803603602081101561035b57600080fd5b8101908080359060200190929190505050610b61565b6040518082815260200191505060405180910390f35b34801561039357600080fd5b506103ea600480360360608110156103aa57600080fd5b810190808035906020019092919080359060200190929190803573ffffffffffffffffffffffffffffffffffffffff169060200190929190505050610b79565b6040518082815260200191505060405180910390f35b34801561040c57600080fd5b50610415610f62565b6040518082815260200191505060405180910390f35b34801561043757600080fd5b506104646004803603602081101561044e57600080fd5b8101908080359060200190929190505050610f68565b6040518082815260200191505060405180910390f35b34801561048657600080fd5b506104d36004803603604081101561049d57600080fd5b81019080803573ffffffffffffffffffffffffffffffffffffffff16906020019092919080359060200190929190505050610f80565b6040518082815260200191505060405180910390f35b3480156104f557600080fd5b506104fe611166565b6040518082815260200191505060405180910390f35b34801561052057600080fd5b506105636004803603602081101561053757600080fd5b81019080803573ffffffffffffffffffffffffffffffffffffffff16906020019092919050505061116c565b005b34801561057157600080fd5b506105b46004803603602081101561058857600080fd5b81019080803573ffffffffffffffffffffffffffffffffffffffff16906020019092919050505061120b565b6040518082815260200191505060405180910390f35b3480156105d657600080fd5b5061060d600480360360408110156105ed57600080fd5b810190808035906020019092919080359060200190929190505050611223565b60405180848152602001838152602001828152602001935050505060405180910390f35b34801561063d57600080fd5b50610646611269565b604051808273ffffffffffffffffffffffffffffffffffffffff1673ffffffffffffffffffffffffffffffffffffffff16815260200191505060405180910390f35b34801561069457600080fd5b506106d7600480360360208110156106ab57600080fd5b81019080803573ffffffffffffffffffffffffffffffffffffffff16906020019092919050505061128e565b6040518082815260200191505060405180910390f35b3480156106f957600080fd5b506107266004803603602081101561071057600080fd5b81019080803590602001909291905050506112a6565b6040518082815260200191505060405180910390f35b34801561074857600080fd5b5061077f6004803603604081101561075f57600080fd5b8101908080359060200190929190803590602001909291905050506112be565b60405180848152602001838152602001828152602001935050505060405180910390f35b3480156107af57600080fd5b506107b8611304565b6040518082815260200191505060405180910390f35b6107d661130a565b005b3480156107e457600080fd5b50610811600480360360208110156107fb57600080fd5b810190808035906020019092919050505061135f565b6040518082815260200191505060405180910390f35b34801561083357600080fd5b5061086a6004803603604081101561084a57600080fd5b810190808035906020019092919080359060200190929190505050611377565b60405180848152602001838152602001828152602001935050505060405180910390f35b34801561089a57600080fd5b506108d1600480360360408110156108b157600080fd5b8101908080359060200190929190803590602001909291905050506113bd565b60405180848152602001838152602001828152602001935050505060405180910390f35b34801561090157600080fd5b5061092e6004803603602081101561091857600080fd5b8101908080359060200190929190505050611403565b604051808273ffffffffffffffffffffffffffffffffffffffff1673ffffffffffffffffffffffffffffffffffffffff16815260200191505060405180910390f35b34801561097c57600080fd5b506109a96004803603602081101561099357600080fd5b8101908080359060200190929190505050611436565b604051808215151515815260200191505060405180910390f35b3480156109cf57600080fd5b50610a12600480360360208110156109e657600080fd5b81019080803573ffffffffffffffffffffffffffffffffffffffff169060200190929190505050611456565b6040518082815260200191505060405180910390f35b60176020528060005260406000206000915090505481565b600b60205281600052604060002081815481101515610a5b57fe5b9060005260206000209060030201600091509150508060000154908060010154908060020154905083565b60106020528060005260406000206000915054906101000a900460ff1681565b610af881600e60003373ffffffffffffffffffffffffffffffffffffffff1673ffffffffffffffffffffffffffffffffffffffff1681526020019081526020016000205461146e90919063ffffffff16565b503373ffffffffffffffffffffffffffffffffffffffff166108fc829081150290604051600060405180830381858888f19350505050158015610b3f573d6000803e3d6000fd5b5050565b60146020528060005260406000206000915090505481565b60035481565b60136020528060005260406000206000915090505481565b60008060009054906101000a900473ffffffffffffffffffffffffffffffffffffffff1673ffffffffffffffffffffffffffffffffffffffff163373ffffffffffffffffffffffffffffffffffffffff16141515610bd657600080fd5b60006002549050610be5611ab0565b6060604051908101604052808381526020014281526020018681525090506103e8861415610c7257600760008681526020019081526020016000208190806001815401808255809150509060018203906000526020600020906003020160009091929091909150600082015181600001556020820151816001015560408201518160020155505050610e9c565b6032861415610ce057600860008681526020019081526020016000208190806001815401808255809150509060018203906000526020600020906003020160009091929091909150600082015181600001556020820151816001015560408201518160020155505050610e9b565b600a861415610d4e57600960008681526020019081526020016000208190806001815401808255809150509060018203906000526020600020906003020160009091929091909150600082015181600001556020820151816001015560408201518160020155505050610e9a565b6004861415610dbc57600a60008681526020019081526020016000208190806001815401808255809150509060018203906000526020600020906003020160009091929091909150600082015181600001556020820151816001015560408201518160020155505050610e99565b6001861415610e2a57600b60008681526020019081526020016000208190806001815401808255809150509060018203906000526020600020906003020160009091929091909150600082015181600001556020820151816001015560408201518160020155505050610e98565b6040517f08c379a00000000000000000000000000000000000000000000000000000000081526004018080602001828103825260188152602001807f496e76616c6964206361726420726172652073636f726521000000000000000081525060200191505060405180910390fd5b5b5b5b5b856011600084815260200190815260200160002081905550610ec98660045461149090919063ffffffff16565b50610ee0600160025461149090919063ffffffff16565b506012600086815260200190815260200160002060009054906101000a900460ff161515610f4c5760016012600087815260200190815260200160002060006101000a81548160ff021916908315150217905550610f4a600160035461149090919063ffffffff16565b505b610f5684836114b1565b81925050509392505050565b60025481565b60166020528060005260406000206000915090505481565b60008060009054906101000a900473ffffffffffffffffffffffffffffffffffffffff1673ffffffffffffffffffffffffffffffffffffffff163373ffffffffffffffffffffffffffffffffffffffff16141515610fdd57600080fd5b601060008473ffffffffffffffffffffffffffffffffffffffff1673ffffffffffffffffffffffffffffffffffffffff16815260200190815260200160002060009054906101000a900460ff161561108957611083600154600e60008673ffffffffffffffffffffffffffffffffffffffff1673ffffffffffffffffffffffffffffffffffffffff1681526020019081526020016000205461146e90919063ffffffff16565b506110e2565b6001601060008573ffffffffffffffffffffffffffffffffffffffff1673ffffffffffffffffffffffffffffffffffffffff16815260200190815260200160002060006101000a81548160ff0219169083151502179055505b6000808314156111215761111e600161111061110b6003546005546116a790919063ffffffff16565b6116cc565b61149090919063ffffffff16565b90505b600061113561112f836116cc565b836117e6565b905061114185826114b1565b8060058190555060116000828152602001908152602001600020549250505092915050565b60015481565b6000809054906101000a900473ffffffffffffffffffffffffffffffffffffffff1673ffffffffffffffffffffffffffffffffffffffff163373ffffffffffffffffffffffffffffffffffffffff161415156111c757600080fd5b80600660006101000a81548173ffffffffffffffffffffffffffffffffffffffff021916908373ffffffffffffffffffffffffffffffffffffffff16021790555050565b600f6020528060005260406000206000915090505481565b60096020528160005260406000208181548110151561123e57fe5b9060005260206000209060030201600091509150508060000154908060010154908060020154905083565b6000809054906101000a900473ffffffffffffffffffffffffffffffffffffffff1681565b600d6020528060005260406000206000915090505481565b60116020528060005260406000206000915090505481565b600a602052816000526040600020818154811015156112d957fe5b9060005260206000209060030201600091509150508060000154908060010154908060020154905083565b60045481565b61135c34600e60003373ffffffffffffffffffffffffffffffffffffffff1673ffffffffffffffffffffffffffffffffffffffff1681526020019081526020016000205461149090919063ffffffff16565b50565b60156020528060005260406000206000915090505481565b60076020528160005260406000208181548110151561139257fe5b9060005260206000209060030201600091509150508060000154908060010154908060020154905083565b6008602052816000526040600020818154811015156113d857fe5b9060005260206000209060030201600091509150508060000154908060010154908060020154905083565b600c6020528060005260406000206000915054906101000a900473ffffffffffffffffffffffffffffffffffffffff1681565b60126020528060005260406000206000915054906101000a900460ff1681565b600e6020528060005260406000206000915090505481565b600082821115151561147f57600080fd5b600082840390508091505092915050565b60008082840190508381101515156114a757600080fd5b8091505092915050565b6000600c600083815260200190815260200160002060009054906101000a900473ffffffffffffffffffffffffffffffffffffffff1690506000601160008481526020019081526020016000205490506115546001600d60008573ffffffffffffffffffffffffffffffffffffffff1673ffffffffffffffffffffffffffffffffffffffff1681526020019081526020016000205461146e90919063ffffffff16565b5083600c600085815260200190815260200160002060006101000a81548173ffffffffffffffffffffffffffffffffffffffff021916908373ffffffffffffffffffffffffffffffffffffffff1602179055506115fa6001600d60008773ffffffffffffffffffffffffffffffffffffffff1673ffffffffffffffffffffffffffffffffffffffff1681526020019081526020016000205461149090919063ffffffff16565b5061164d81600f60008573ffffffffffffffffffffffffffffffffffffffff1673ffffffffffffffffffffffffffffffffffffffff1681526020019081526020016000205461146e90919063ffffffff16565b506116a081600f60008773ffffffffffffffffffffffffffffffffffffffff1673ffffffffffffffffffffffffffffffffffffffff1681526020019081526020016000205461149090919063ffffffff16565b5050505050565b60008082141515156116b857600080fd5b81838115156116c357fe5b06905092915050565b6000444283600660009054906101000a900473ffffffffffffffffffffffffffffffffffffffff1673ffffffffffffffffffffffffffffffffffffffff1663f3be7626866001026040518263ffffffff167c010000000000000000000000000000000000000000000000000000000002815260040180828152602001915050602060405180830381600087803b15801561176557600080fd5b505af1158015611779573d6000803e3d6000fd5b505050506040513d602081101561178f57600080fd5b81019080805190602001909291905050506040516020018085815260200184815260200183815260200182815260200194505050505060405160208183030381529060405280519060200120600190049050919050565b60008061182e61182961181a6103e83373ffffffffffffffffffffffffffffffffffffffff16611a8690919063ffffffff16565b8661149090919063ffffffff16565b6116cc565b905060006118476103e8866116a790919063ffffffff16565b905060008114156118b5576007600085815260200190815260200160002061188e6007600087815260200190815260200160002080549050846116a790919063ffffffff16565b81548110151561189a57fe5b90600052602060002090600302016000015492505050611a80565b6000811180156118c6575060148111155b1561192e57600860008581526020019081526020016000206119076008600087815260200190815260200160002080549050846116a790919063ffffffff16565b81548110151561191357fe5b90600052602060002090600302016000015492505050611a80565b60148111801561193f575060788111155b156119a757600960008581526020019081526020016000206119806009600087815260200190815260200160002080549050846116a790919063ffffffff16565b81548110151561198c57fe5b90600052602060002090600302016000015492505050611a80565b6078811180156119b957506101728111155b15611a2157600a60008581526020019081526020016000206119fa600a600087815260200190815260200160002080549050846116a790919063ffffffff16565b815481101515611a0657fe5b90600052602060002090600302016000015492505050611a80565b600b6000858152602001908152602001600020611a5d600b600087815260200190815260200160002080549050846116a790919063ffffffff16565b815481101515611a6957fe5b906000526020600020906003020160000154925050505b92915050565b60008082111515611a9657600080fd5b60008284811515611aa357fe5b0490508091505092915050565b606060405190810160405280600081526020016000815260200160008152509056fea165627a7a7230582036b65409860e73d783b9519a202e85eaa8164415448ff3f847af1b4ba8b0aa250029",
  "source": "pragma solidity ^0.5.0;\n\nimport { SafeMath } from \"./openzeppelin-solidity/contracts/math/SafeMath.sol\";\n\ncontract Randomness {\n    \n  address owner;\n\n  modifier onlyOwner(){\n    require(msg.sender == owner);\n    _;\n  }\n\n  constructor() public{\n    owner = msg.sender;\n  }\n\n  bytes32 private seed = \"hi\";\n  function rand(bytes32 key) public onlyOwner returns (bytes32) {\n    seed ^= key;\n    return keccak256(abi.encodePacked(key, seed, now, block.difficulty, \"台灣きन्दी한حَNo.1 :) \"));\n  }\n}\n\ncontract CryptoBeauty {\n\n  using SafeMath for uint256;\n\n  struct Card {\n    uint256 id; \n    uint256 birthTime;\n    uint256 modelId; // from 1 to 2^256-1, 0 is unspecified\n  }\n\n  address public owner;\n  uint256 public drawCardCost = 1;\n  uint256 public totalCardCount;\n  uint256 public totalModelCount;\n  uint256 public totalRareScore;\n  \n  uint256 internal lastDrawCardId;\n  address internal randContractAddr;\n\n  // modelId map to card\n  mapping (uint256 => Card[]) public URcards;\n  mapping (uint256 => Card[]) public SSRcards;\n  mapping (uint256 => Card[]) public SRcards;\n  mapping (uint256 => Card[]) public Rcards;\n  mapping (uint256 => Card[]) public Ncards;\n\n  mapping (uint256 => address) public cardIndexToHolder;\n  mapping (address => uint256) public holdCardCount;\n  mapping (address => uint256) public playerDeposit;\n  mapping (address => uint256) public playerRareScore;\n  mapping (address => bool) public hasPlayed;\n\n  mapping (uint256 => uint256) public cardIndexToRareScore;\n  mapping (uint256 => bool) public modelCardHasCreated;\n  \n  mapping (uint256 => uint256) public modelIdToURcardCount;\n  mapping (uint256 => uint256) public modelIdToSSRcardCount;\n  mapping (uint256 => uint256) public modelIdToSRcardCount;\n  mapping (uint256 => uint256) public modelIdToRcardCount;\n  mapping (uint256 => uint256) public modelIdToNcardCount;\n\n  modifier onlyOwner(){\n    require(msg.sender == owner);\n    _;\n  }\n\n  constructor() public {\n    owner = msg.sender;\n  }\n\n  // internal functions\n  // transfer card holder\n  function _transferHolder(address _to, uint256 _cardId) internal {\n    address _from = cardIndexToHolder[_cardId];\n    uint256 _rareScore = cardIndexToRareScore[_cardId];\n\n    holdCardCount[_from].sub(1);\n    cardIndexToHolder[_cardId] = _to;\n    holdCardCount[_to].add(1);\n\n    playerRareScore[_from].sub(_rareScore);\n    playerRareScore[_to].add(_rareScore);\n  }\n\n  function random(uint256 seed) internal returns (uint) {\n    return uint(keccak256(abi.encodePacked(block.difficulty, block.timestamp, seed, Randomness(randContractAddr).rand(bytes32(seed)))));\n  }\n\n  function randNumToCardIndexByModel(uint randNum, uint modelId) internal returns (uint) {\n    uint256 newRandNum = random(randNum.add(uint256(msg.sender).div(1000)));\n    uint rareScore = randNum.mod(1000);\n\n    if(rareScore == 0) return URcards[modelId][newRandNum.mod(URcards[modelId].length)].id;\n    else if(rareScore > 0 && rareScore <= 20) return SSRcards[modelId][newRandNum.mod(SSRcards[modelId].length)].id;\n    else if(rareScore > 20 && rareScore <= 120) return SRcards[modelId][newRandNum.mod(SRcards[modelId].length)].id;\n    else if(rareScore > 120 && rareScore <= 370) return Rcards[modelId][newRandNum.mod(Rcards[modelId].length)].id;\n    else return Ncards[modelId][newRandNum.mod(Ncards[modelId].length)].id;\n  }\n\n  // public functions\n  function createNewCard (\n    uint _rareScore,\n    uint _modelId,\n    address _holder\n  )\n    public\n    onlyOwner\n    returns (uint)\n  {\n    uint256 newCardId = totalCardCount;\n\n    Card memory _card = Card({\n      id: newCardId,\n      modelId: _modelId,\n      birthTime: uint256(block.timestamp)\n    });\n\n    if(_rareScore == 1000) URcards[_modelId].push(_card);\n    else if(_rareScore == 50) SSRcards[_modelId].push(_card);\n    else if(_rareScore == 10) SRcards[_modelId].push(_card);\n    else if(_rareScore == 4) Rcards[_modelId].push(_card);\n    else if(_rareScore == 1) Ncards[_modelId].push(_card);\n    else revert(\"Invalid card rare score!\");\n\n    cardIndexToRareScore[newCardId] = _rareScore;\n\n    // increment total\n    totalRareScore.add(_rareScore);\n    totalCardCount.add(1);\n    if(!modelCardHasCreated[_modelId]) {\n      modelCardHasCreated[_modelId] = true;\n      totalModelCount.add(1);\n    }\n    \n    _transferHolder(_holder, newCardId);\n    return newCardId;\n  }\n\n  function drawCard(address _to, uint _modelId) public onlyOwner returns (uint256 rareScore) {\n\n    // first visit -> draw card for free \n    if(hasPlayed[_to])\n      playerDeposit[_to].sub(drawCardCost);\n    else hasPlayed[_to] = true;\n\n    // rand draw a model if the given id is 0\n    uint modelId;\n    if(_modelId == 0){\n      modelId = random((lastDrawCardId).mod(totalModelCount)).add(1);\n    }\n\n    uint index = randNumToCardIndexByModel(random(modelId), modelId);\n    _transferHolder(_to, index);\n\n    lastDrawCardId = index;\n\n    // return how rare the card is \n    return cardIndexToRareScore[index]; \n  }\n\n  function deposit() public payable {\n    playerDeposit[msg.sender].add(msg.value);\n  }\n\n  function withdrawDeposit(uint amount) public {\n    playerDeposit[msg.sender].sub(amount);\n    msg.sender.transfer(amount);\n  }\n\n  function setRandContractAddr(address _addr) public onlyOwner {\n    randContractAddr = _addr;\n  } \n}\n\n",
  "sourcePath": "/Users/tingtinglee/hack/CryptoBeauty/contracts/CryptoBeauty.sol",
  "compiler": {
    "name": "solc",
    "version": "0.5.0+commit.1d4f565a.Emscripten.clang"
  },
  "schemaVersion": "3.0.0",
  "updatedAt": "2018-12-25T04:44:08.909Z",
  "devdoc": {
    "methods": {}
  },
  "userdoc": {
    "methods": {}
  }
}