{
  "contractName": "Randomness",
  "abi": [
    {
      "inputs": [],
      "payable": false,
      "stateMutability": "nonpayable",
      "type": "constructor"
    },
    {
      "constant": false,
      "inputs": [
        {
          "name": "key",
          "type": "bytes32"
        }
      ],
      "name": "rand",
      "outputs": [
        {
          "name": "",
          "type": "bytes32"
        }
      ],
      "payable": false,
      "stateMutability": "nonpayable",
      "type": "function"
    }
  ],
  "bytecode": "0x60806040527f686900000000000000000000000000000000000000000000000000000000000060015534801561003457600080fd5b50336000806101000a81548173ffffffffffffffffffffffffffffffffffffffff021916908373ffffffffffffffffffffffffffffffffffffffff1602179055506101c4806100846000396000f3fe608060405260043610610041576000357c0100000000000000000000000000000000000000000000000000000000900463ffffffff168063f3be762614610046575b600080fd5b34801561005257600080fd5b5061007f6004803603602081101561006957600080fd5b8101908080359060200190929190505050610095565b6040518082815260200191505060405180910390f35b60008060009054906101000a900473ffffffffffffffffffffffffffffffffffffffff1673ffffffffffffffffffffffffffffffffffffffff163373ffffffffffffffffffffffffffffffffffffffff161415156100f257600080fd5b8160016000828254189250508190555081600154424460405160200180858152602001848152602001838152602001828152602001807fe58fb0e781a3e3818de0a4a8e0a58de0a4a6e0a580ed959cd8add98e4e6f2e3181526020017f203a29200000000000000000000000000000000000000000000000000000000081525060240194505050505060405160208183030381529060405280519060200120905091905056fea165627a7a7230582049cd7ebdda14dc42136f2586ba22ef76515cf0e4f707cfc93cd6a10b06fc09cc0029",
  "source": "pragma solidity ^0.5.0;\n\nimport { SafeMath } from \"./openzeppelin-solidity/contracts/math/SafeMath.sol\";\n\ncontract Randomness {\n    \n  address owner;\n\n  modifier onlyOwner(){\n    require(msg.sender == owner);\n    _;\n  }\n\n  constructor() public{\n    owner = msg.sender;\n  }\n\n  bytes32 private seed = \"hi\";\n  function rand(bytes32 key) public onlyOwner returns (bytes32) {\n    seed ^= key;\n    return keccak256(abi.encodePacked(key, seed, now, block.difficulty, \"台灣きन्दी한حَNo.1 :) \"));\n  }\n}\n\ncontract CryptoBeauty {\n\n  using SafeMath for uint256;\n\n  struct Card {\n    uint256 id; \n    uint256 birthTime;\n    uint256 modelId; // from 1 to 2^256-1, 0 is unspecified\n  }\n\n  address public owner;\n  uint256 public drawCardCost = 1;\n  uint256 public totalCardCount;\n  uint256 public totalModelCount;\n  uint256 public totalRareScore;\n  \n  uint256 internal lastDrawCardId;\n  address internal randContractAddr;\n\n  // modelId map to card\n  mapping (uint256 => Card[]) public URcards;\n  mapping (uint256 => Card[]) public SSRcards;\n  mapping (uint256 => Card[]) public SRcards;\n  mapping (uint256 => Card[]) public Rcards;\n  mapping (uint256 => Card[]) public Ncards;\n\n  mapping (uint256 => address) public cardIndexToHolder;\n  mapping (address => uint256) public holdCardCount;\n  mapping (address => uint256) public playerDeposit;\n  mapping (address => uint256) public playerRareScore;\n  mapping (address => bool) public hasPlayed;\n\n  mapping (uint256 => uint256) public cardIndexToRareScore;\n  mapping (uint256 => bool) public modelCardHasCreated;\n  \n  mapping (uint256 => uint256) public modelIdToURcardCount;\n  mapping (uint256 => uint256) public modelIdToSSRcardCount;\n  mapping (uint256 => uint256) public modelIdToSRcardCount;\n  mapping (uint256 => uint256) public modelIdToRcardCount;\n  mapping (uint256 => uint256) public modelIdToNcardCount;\n\n  modifier onlyOwner(){\n    require(msg.sender == owner);\n    _;\n  }\n\n  constructor() public {\n    owner = msg.sender;\n  }\n\n  // internal functions\n  // transfer card holder\n  function _transferHolder(address _to, uint256 _cardId) internal {\n    address _from = cardIndexToHolder[_cardId];\n    uint256 _rareScore = cardIndexToRareScore[_cardId];\n\n    holdCardCount[_from].sub(1);\n    cardIndexToHolder[_cardId] = _to;\n    holdCardCount[_to].add(1);\n\n    playerRareScore[_from].sub(_rareScore);\n    playerRareScore[_to].add(_rareScore);\n  }\n\n  function random(uint256 seed) internal returns (uint) {\n    return uint(keccak256(abi.encodePacked(block.difficulty, block.timestamp, seed, Randomness(randContractAddr).rand(bytes32(seed)))));\n  }\n\n  function randNumToCardIndexByModel(uint randNum, uint modelId) internal returns (uint) {\n    uint256 newRandNum = random(randNum.add(uint256(msg.sender).div(1000)));\n    uint rareScore = randNum.mod(1000);\n\n    if(rareScore == 0) return URcards[modelId][newRandNum.mod(URcards[modelId].length)].id;\n    else if(rareScore > 0 && rareScore <= 20) return SSRcards[modelId][newRandNum.mod(SSRcards[modelId].length)].id;\n    else if(rareScore > 20 && rareScore <= 120) return SRcards[modelId][newRandNum.mod(SRcards[modelId].length)].id;\n    else if(rareScore > 120 && rareScore <= 370) return Rcards[modelId][newRandNum.mod(Rcards[modelId].length)].id;\n    else return Ncards[modelId][newRandNum.mod(Ncards[modelId].length)].id;\n  }\n\n  // public functions\n  function createNewCard (\n    uint _rareScore,\n    uint _modelId,\n    address _holder\n  )\n    public\n    onlyOwner\n    returns (uint)\n  {\n    uint256 newCardId = totalCardCount;\n\n    Card memory _card = Card({\n      id: newCardId,\n      modelId: _modelId,\n      birthTime: uint256(block.timestamp)\n    });\n\n    if(_rareScore == 1000) URcards[_modelId].push(_card);\n    else if(_rareScore == 50) SSRcards[_modelId].push(_card);\n    else if(_rareScore == 10) SRcards[_modelId].push(_card);\n    else if(_rareScore == 4) Rcards[_modelId].push(_card);\n    else if(_rareScore == 1) Ncards[_modelId].push(_card);\n    else revert(\"Invalid card rare score!\");\n\n    cardIndexToRareScore[newCardId] = _rareScore;\n\n    // increment total\n    totalRareScore.add(_rareScore);\n    totalCardCount.add(1);\n    if(!modelCardHasCreated[_modelId]) {\n      modelCardHasCreated[_modelId] = true;\n      totalModelCount.add(1);\n    }\n    \n    _transferHolder(_holder, newCardId);\n    return newCardId;\n  }\n\n  function drawCard(address _to, uint _modelId) public onlyOwner returns (uint256 rareScore) {\n\n    // first visit -> draw card for free \n    if(hasPlayed[_to])\n      playerDeposit[_to].sub(drawCardCost);\n    else hasPlayed[_to] = true;\n\n    // rand draw a model if the given id is 0\n    uint modelId;\n    if(_modelId == 0){\n      modelId = random((lastDrawCardId).mod(totalModelCount)).add(1);\n    }\n\n    uint index = randNumToCardIndexByModel(random(modelId), modelId);\n    _transferHolder(_to, index);\n\n    lastDrawCardId = index;\n\n    // return how rare the card is \n    return cardIndexToRareScore[index]; \n  }\n\n  function deposit() public payable {\n    playerDeposit[msg.sender].add(msg.value);\n  }\n\n  function withdrawDeposit(uint amount) public {\n    playerDeposit[msg.sender].sub(amount);\n    msg.sender.transfer(amount);\n  }\n\n  function setRandContractAddr(address _addr) public onlyOwner {\n    randContractAddr = _addr;\n  } \n}\n\n",
  "sourcePath": "/Users/tingtinglee/hack/CryptoBeauty/contracts/CryptoBeauty.sol",
  "compiler": {
    "name": "solc",
    "version": "0.5.0+commit.1d4f565a.Emscripten.clang"
  },
  "schemaVersion": "3.0.0",
  "updatedAt": "2018-12-25T04:44:08.920Z",
  "devdoc": {
    "methods": {}
  },
  "userdoc": {
    "methods": {}
  }
}